{
	"data": {
		"bytecode": {
			"linkReferences": {},
			"object": "608060405260016000806101000a81548160ff021916908360ff1602179055506002600060016101000a81548160ff021916908360ff1602179055506003600060026101000a81548160ff021916908360ff1602179055506001600060046101000a81548160ff02191690831515021790555034801561007e57600080fd5b506106b48061008e6000396000f3fe608060405234801561001057600080fd5b50600436106100575760003560e01c80632c7ad1611461005c5780634ab3248b14610066578063b4cf997814610070578063ce4061641461007a578063eca2a02714610084575b600080fd5b61006461008e565b005b61006e61016d565b005b6100786102c3565b005b610082610405565b005b61008c61043e565b005b600060029054906101000a900460ff16600060019054906101000a900460ff1660008054906101000a900460ff166100c69190610553565b6100d0919061051c565b50600060019054906101000a900460ff16600060029054906101000a900460ff166100fb91906105ef565b5060008081819054906101000a900460ff168092919061011a906105c5565b91906101000a81548160ff021916908360ff160217905550506000600181819054906101000a900460ff16809291906101529061059b565b91906101000a81548160ff021916908360ff16021790555050565b60008060019054906101000a900460ff1660ff1660008054906101000a900460ff1660ff161080156101c25750600060029054906101000a900460ff1660ff16600060019054906101000a900460ff1660ff16115b156101cc57600190505b600060019054906101000a900460ff1660ff1660008054906101000a900460ff1660ff16108061021f5750600060029054906101000a900460ff1660ff16600060019054906101000a900460ff1660ff16115b1561022957600190505b600060019054906101000a900460ff1660ff1660008054906101000a900460ff1660ff1610801561027d5750600060029054906101000a900460ff1660ff16600060019054906101000a900460ff1660ff16115b80156102995750601460008054906101000a900460ff1660ff16115b156102a357600190505b600060049054906101000a900460ff166102bc57600190505b8015905050565b600060029054906101000a900460ff16600060019054906101000a900460ff1660008054906101000a900460ff166102fb9190610553565b610305919061051c565b600060036101000a81548160ff021916908360ff160217905550600060029054906101000a900460ff16600060019054906101000a900460ff1660008054906101000a900460ff166103579190610553565b610361919061051c565b6000806101000a81548160ff021916908360ff160217905550600060029054906101000a900460ff16600060019054906101000a900460ff166103a49190610553565b600060016101000a81548160ff021916908360ff160217905550600060029054906101000a900460ff16600060018282829054906101000a900460ff166103eb9190610553565b92506101000a81548160ff021916908360ff160217905550565b60008060019054906101000a900460ff1660ff1660008054906101000a900460ff1660ff1610610436576032610439565b60645b905050565b60008060019054906101000a900460ff1660ff1660008054906101000a900460ff1660ff16101561046e57600190505b600060019054906101000a900460ff1660ff1660008054906101000a900460ff1660ff161161049c57600190505b600060019054906101000a900460ff1660ff1660008054906101000a900460ff1660ff1614156104cb57600190505b600060019054906101000a900460ff1660ff1660008054906101000a900460ff1660ff16146104f957600190505b600060049054906101000a900460ff161515811515141561051957600190505b50565b60006105278261058e565b91506105328361058e565b92508260ff0382111561054857610547610620565b5b828201905092915050565b600061055e8261058e565b91506105698361058e565b92508160ff048311821515161561058357610582610620565b5b828202905092915050565b600060ff82169050919050565b60006105a68261058e565b915060008214156105ba576105b9610620565b5b600182039050919050565b60006105d08261058e565b915060ff8214156105e4576105e3610620565b5b600182019050919050565b60006105fa8261058e565b91506106058361058e565b9250826106155761061461064f565b5b828206905092915050565b7f4e487b7100000000000000000000000000000000000000000000000000000000600052601160045260246000fd5b7f4e487b7100000000000000000000000000000000000000000000000000000000600052601260045260246000fdfea26469706673582212204297771de62640b3b79685cf1e59600a3b4e29091f20196cbfc43edde10efd8064736f6c63430008070033",
			"opcodes": "PUSH1 0x80 PUSH1 0x40 MSTORE PUSH1 0x1 PUSH1 0x0 DUP1 PUSH2 0x100 EXP DUP2 SLOAD DUP2 PUSH1 0xFF MUL NOT AND SWAP1 DUP4 PUSH1 0xFF AND MUL OR SWAP1 SSTORE POP PUSH1 0x2 PUSH1 0x0 PUSH1 0x1 PUSH2 0x100 EXP DUP2 SLOAD DUP2 PUSH1 0xFF MUL NOT AND SWAP1 DUP4 PUSH1 0xFF AND MUL OR SWAP1 SSTORE POP PUSH1 0x3 PUSH1 0x0 PUSH1 0x2 PUSH2 0x100 EXP DUP2 SLOAD DUP2 PUSH1 0xFF MUL NOT AND SWAP1 DUP4 PUSH1 0xFF AND MUL OR SWAP1 SSTORE POP PUSH1 0x1 PUSH1 0x0 PUSH1 0x4 PUSH2 0x100 EXP DUP2 SLOAD DUP2 PUSH1 0xFF MUL NOT AND SWAP1 DUP4 ISZERO ISZERO MUL OR SWAP1 SSTORE POP CALLVALUE DUP1 ISZERO PUSH2 0x7E JUMPI PUSH1 0x0 DUP1 REVERT JUMPDEST POP PUSH2 0x6B4 DUP1 PUSH2 0x8E PUSH1 0x0 CODECOPY PUSH1 0x0 RETURN INVALID PUSH1 0x80 PUSH1 0x40 MSTORE CALLVALUE DUP1 ISZERO PUSH2 0x10 JUMPI PUSH1 0x0 DUP1 REVERT JUMPDEST POP PUSH1 0x4 CALLDATASIZE LT PUSH2 0x57 JUMPI PUSH1 0x0 CALLDATALOAD PUSH1 0xE0 SHR DUP1 PUSH4 0x2C7AD161 EQ PUSH2 0x5C JUMPI DUP1 PUSH4 0x4AB3248B EQ PUSH2 0x66 JUMPI DUP1 PUSH4 0xB4CF9978 EQ PUSH2 0x70 JUMPI DUP1 PUSH4 0xCE406164 EQ PUSH2 0x7A JUMPI DUP1 PUSH4 0xECA2A027 EQ PUSH2 0x84 JUMPI JUMPDEST PUSH1 0x0 DUP1 REVERT JUMPDEST PUSH2 0x64 PUSH2 0x8E JUMP JUMPDEST STOP JUMPDEST PUSH2 0x6E PUSH2 0x16D JUMP JUMPDEST STOP JUMPDEST PUSH2 0x78 PUSH2 0x2C3 JUMP JUMPDEST STOP JUMPDEST PUSH2 0x82 PUSH2 0x405 JUMP JUMPDEST STOP JUMPDEST PUSH2 0x8C PUSH2 0x43E JUMP JUMPDEST STOP JUMPDEST PUSH1 0x0 PUSH1 0x2 SWAP1 SLOAD SWAP1 PUSH2 0x100 EXP SWAP1 DIV PUSH1 0xFF AND PUSH1 0x0 PUSH1 0x1 SWAP1 SLOAD SWAP1 PUSH2 0x100 EXP SWAP1 DIV PUSH1 0xFF AND PUSH1 0x0 DUP1 SLOAD SWAP1 PUSH2 0x100 EXP SWAP1 DIV PUSH1 0xFF AND PUSH2 0xC6 SWAP2 SWAP1 PUSH2 0x553 JUMP JUMPDEST PUSH2 0xD0 SWAP2 SWAP1 PUSH2 0x51C JUMP JUMPDEST POP PUSH1 0x0 PUSH1 0x1 SWAP1 SLOAD SWAP1 PUSH2 0x100 EXP SWAP1 DIV PUSH1 0xFF AND PUSH1 0x0 PUSH1 0x2 SWAP1 SLOAD SWAP1 PUSH2 0x100 EXP SWAP1 DIV PUSH1 0xFF AND PUSH2 0xFB SWAP2 SWAP1 PUSH2 0x5EF JUMP JUMPDEST POP PUSH1 0x0 DUP1 DUP2 DUP2 SWAP1 SLOAD SWAP1 PUSH2 0x100 EXP SWAP1 DIV PUSH1 0xFF AND DUP1 SWAP3 SWAP2 SWAP1 PUSH2 0x11A SWAP1 PUSH2 0x5C5 JUMP JUMPDEST SWAP2 SWAP1 PUSH2 0x100 EXP DUP2 SLOAD DUP2 PUSH1 0xFF MUL NOT AND SWAP1 DUP4 PUSH1 0xFF AND MUL OR SWAP1 SSTORE POP POP PUSH1 0x0 PUSH1 0x1 DUP2 DUP2 SWAP1 SLOAD SWAP1 PUSH2 0x100 EXP SWAP1 DIV PUSH1 0xFF AND DUP1 SWAP3 SWAP2 SWAP1 PUSH2 0x152 SWAP1 PUSH2 0x59B JUMP JUMPDEST SWAP2 SWAP1 PUSH2 0x100 EXP DUP2 SLOAD DUP2 PUSH1 0xFF MUL NOT AND SWAP1 DUP4 PUSH1 0xFF AND MUL OR SWAP1 SSTORE POP POP JUMP JUMPDEST PUSH1 0x0 DUP1 PUSH1 0x1 SWAP1 SLOAD SWAP1 PUSH2 0x100 EXP SWAP1 DIV PUSH1 0xFF AND PUSH1 0xFF AND PUSH1 0x0 DUP1 SLOAD SWAP1 PUSH2 0x100 EXP SWAP1 DIV PUSH1 0xFF AND PUSH1 0xFF AND LT DUP1 ISZERO PUSH2 0x1C2 JUMPI POP PUSH1 0x0 PUSH1 0x2 SWAP1 SLOAD SWAP1 PUSH2 0x100 EXP SWAP1 DIV PUSH1 0xFF AND PUSH1 0xFF AND PUSH1 0x0 PUSH1 0x1 SWAP1 SLOAD SWAP1 PUSH2 0x100 EXP SWAP1 DIV PUSH1 0xFF AND PUSH1 0xFF AND GT JUMPDEST ISZERO PUSH2 0x1CC JUMPI PUSH1 0x1 SWAP1 POP JUMPDEST PUSH1 0x0 PUSH1 0x1 SWAP1 SLOAD SWAP1 PUSH2 0x100 EXP SWAP1 DIV PUSH1 0xFF AND PUSH1 0xFF AND PUSH1 0x0 DUP1 SLOAD SWAP1 PUSH2 0x100 EXP SWAP1 DIV PUSH1 0xFF AND PUSH1 0xFF AND LT DUP1 PUSH2 0x21F JUMPI POP PUSH1 0x0 PUSH1 0x2 SWAP1 SLOAD SWAP1 PUSH2 0x100 EXP SWAP1 DIV PUSH1 0xFF AND PUSH1 0xFF AND PUSH1 0x0 PUSH1 0x1 SWAP1 SLOAD SWAP1 PUSH2 0x100 EXP SWAP1 DIV PUSH1 0xFF AND PUSH1 0xFF AND GT JUMPDEST ISZERO PUSH2 0x229 JUMPI PUSH1 0x1 SWAP1 POP JUMPDEST PUSH1 0x0 PUSH1 0x1 SWAP1 SLOAD SWAP1 PUSH2 0x100 EXP SWAP1 DIV PUSH1 0xFF AND PUSH1 0xFF AND PUSH1 0x0 DUP1 SLOAD SWAP1 PUSH2 0x100 EXP SWAP1 DIV PUSH1 0xFF AND PUSH1 0xFF AND LT DUP1 ISZERO PUSH2 0x27D JUMPI POP PUSH1 0x0 PUSH1 0x2 SWAP1 SLOAD SWAP1 PUSH2 0x100 EXP SWAP1 DIV PUSH1 0xFF AND PUSH1 0xFF AND PUSH1 0x0 PUSH1 0x1 SWAP1 SLOAD SWAP1 PUSH2 0x100 EXP SWAP1 DIV PUSH1 0xFF AND PUSH1 0xFF AND GT JUMPDEST DUP1 ISZERO PUSH2 0x299 JUMPI POP PUSH1 0x14 PUSH1 0x0 DUP1 SLOAD SWAP1 PUSH2 0x100 EXP SWAP1 DIV PUSH1 0xFF AND PUSH1 0xFF AND GT JUMPDEST ISZERO PUSH2 0x2A3 JUMPI PUSH1 0x1 SWAP1 POP JUMPDEST PUSH1 0x0 PUSH1 0x4 SWAP1 SLOAD SWAP1 PUSH2 0x100 EXP SWAP1 DIV PUSH1 0xFF AND PUSH2 0x2BC JUMPI PUSH1 0x1 SWAP1 POP JUMPDEST DUP1 ISZERO SWAP1 POP POP JUMP JUMPDEST PUSH1 0x0 PUSH1 0x2 SWAP1 SLOAD SWAP1 PUSH2 0x100 EXP SWAP1 DIV PUSH1 0xFF AND PUSH1 0x0 PUSH1 0x1 SWAP1 SLOAD SWAP1 PUSH2 0x100 EXP SWAP1 DIV PUSH1 0xFF AND PUSH1 0x0 DUP1 SLOAD SWAP1 PUSH2 0x100 EXP SWAP1 DIV PUSH1 0xFF AND PUSH2 0x2FB SWAP2 SWAP1 PUSH2 0x553 JUMP JUMPDEST PUSH2 0x305 SWAP2 SWAP1 PUSH2 0x51C JUMP JUMPDEST PUSH1 0x0 PUSH1 0x3 PUSH2 0x100 EXP DUP2 SLOAD DUP2 PUSH1 0xFF MUL NOT AND SWAP1 DUP4 PUSH1 0xFF AND MUL OR SWAP1 SSTORE POP PUSH1 0x0 PUSH1 0x2 SWAP1 SLOAD SWAP1 PUSH2 0x100 EXP SWAP1 DIV PUSH1 0xFF AND PUSH1 0x0 PUSH1 0x1 SWAP1 SLOAD SWAP1 PUSH2 0x100 EXP SWAP1 DIV PUSH1 0xFF AND PUSH1 0x0 DUP1 SLOAD SWAP1 PUSH2 0x100 EXP SWAP1 DIV PUSH1 0xFF AND PUSH2 0x357 SWAP2 SWAP1 PUSH2 0x553 JUMP JUMPDEST PUSH2 0x361 SWAP2 SWAP1 PUSH2 0x51C JUMP JUMPDEST PUSH1 0x0 DUP1 PUSH2 0x100 EXP DUP2 SLOAD DUP2 PUSH1 0xFF MUL NOT AND SWAP1 DUP4 PUSH1 0xFF AND MUL OR SWAP1 SSTORE POP PUSH1 0x0 PUSH1 0x2 SWAP1 SLOAD SWAP1 PUSH2 0x100 EXP SWAP1 DIV PUSH1 0xFF AND PUSH1 0x0 PUSH1 0x1 SWAP1 SLOAD SWAP1 PUSH2 0x100 EXP SWAP1 DIV PUSH1 0xFF AND PUSH2 0x3A4 SWAP2 SWAP1 PUSH2 0x553 JUMP JUMPDEST PUSH1 0x0 PUSH1 0x1 PUSH2 0x100 EXP DUP2 SLOAD DUP2 PUSH1 0xFF MUL NOT AND SWAP1 DUP4 PUSH1 0xFF AND MUL OR SWAP1 SSTORE POP PUSH1 0x0 PUSH1 0x2 SWAP1 SLOAD SWAP1 PUSH2 0x100 EXP SWAP1 DIV PUSH1 0xFF AND PUSH1 0x0 PUSH1 0x1 DUP3 DUP3 DUP3 SWAP1 SLOAD SWAP1 PUSH2 0x100 EXP SWAP1 DIV PUSH1 0xFF AND PUSH2 0x3EB SWAP2 SWAP1 PUSH2 0x553 JUMP JUMPDEST SWAP3 POP PUSH2 0x100 EXP DUP2 SLOAD DUP2 PUSH1 0xFF MUL NOT AND SWAP1 DUP4 PUSH1 0xFF AND MUL OR SWAP1 SSTORE POP JUMP JUMPDEST PUSH1 0x0 DUP1 PUSH1 0x1 SWAP1 SLOAD SWAP1 PUSH2 0x100 EXP SWAP1 DIV PUSH1 0xFF AND PUSH1 0xFF AND PUSH1 0x0 DUP1 SLOAD SWAP1 PUSH2 0x100 EXP SWAP1 DIV PUSH1 0xFF AND PUSH1 0xFF AND LT PUSH2 0x436 JUMPI PUSH1 0x32 PUSH2 0x439 JUMP JUMPDEST PUSH1 0x64 JUMPDEST SWAP1 POP POP JUMP JUMPDEST PUSH1 0x0 DUP1 PUSH1 0x1 SWAP1 SLOAD SWAP1 PUSH2 0x100 EXP SWAP1 DIV PUSH1 0xFF AND PUSH1 0xFF AND PUSH1 0x0 DUP1 SLOAD SWAP1 PUSH2 0x100 EXP SWAP1 DIV PUSH1 0xFF AND PUSH1 0xFF AND LT ISZERO PUSH2 0x46E JUMPI PUSH1 0x1 SWAP1 POP JUMPDEST PUSH1 0x0 PUSH1 0x1 SWAP1 SLOAD SWAP1 PUSH2 0x100 EXP SWAP1 DIV PUSH1 0xFF AND PUSH1 0xFF AND PUSH1 0x0 DUP1 SLOAD SWAP1 PUSH2 0x100 EXP SWAP1 DIV PUSH1 0xFF AND PUSH1 0xFF AND GT PUSH2 0x49C JUMPI PUSH1 0x1 SWAP1 POP JUMPDEST PUSH1 0x0 PUSH1 0x1 SWAP1 SLOAD SWAP1 PUSH2 0x100 EXP SWAP1 DIV PUSH1 0xFF AND PUSH1 0xFF AND PUSH1 0x0 DUP1 SLOAD SWAP1 PUSH2 0x100 EXP SWAP1 DIV PUSH1 0xFF AND PUSH1 0xFF AND EQ ISZERO PUSH2 0x4CB JUMPI PUSH1 0x1 SWAP1 POP JUMPDEST PUSH1 0x0 PUSH1 0x1 SWAP1 SLOAD SWAP1 PUSH2 0x100 EXP SWAP1 DIV PUSH1 0xFF AND PUSH1 0xFF AND PUSH1 0x0 DUP1 SLOAD SWAP1 PUSH2 0x100 EXP SWAP1 DIV PUSH1 0xFF AND PUSH1 0xFF AND EQ PUSH2 0x4F9 JUMPI PUSH1 0x1 SWAP1 POP JUMPDEST PUSH1 0x0 PUSH1 0x4 SWAP1 SLOAD SWAP1 PUSH2 0x100 EXP SWAP1 DIV PUSH1 0xFF AND ISZERO ISZERO DUP2 ISZERO ISZERO EQ ISZERO PUSH2 0x519 JUMPI PUSH1 0x1 SWAP1 POP JUMPDEST POP JUMP JUMPDEST PUSH1 0x0 PUSH2 0x527 DUP3 PUSH2 0x58E JUMP JUMPDEST SWAP2 POP PUSH2 0x532 DUP4 PUSH2 0x58E JUMP JUMPDEST SWAP3 POP DUP3 PUSH1 0xFF SUB DUP3 GT ISZERO PUSH2 0x548 JUMPI PUSH2 0x547 PUSH2 0x620 JUMP JUMPDEST JUMPDEST DUP3 DUP3 ADD SWAP1 POP SWAP3 SWAP2 POP POP JUMP JUMPDEST PUSH1 0x0 PUSH2 0x55E DUP3 PUSH2 0x58E JUMP JUMPDEST SWAP2 POP PUSH2 0x569 DUP4 PUSH2 0x58E JUMP JUMPDEST SWAP3 POP DUP2 PUSH1 0xFF DIV DUP4 GT DUP3 ISZERO ISZERO AND ISZERO PUSH2 0x583 JUMPI PUSH2 0x582 PUSH2 0x620 JUMP JUMPDEST JUMPDEST DUP3 DUP3 MUL SWAP1 POP SWAP3 SWAP2 POP POP JUMP JUMPDEST PUSH1 0x0 PUSH1 0xFF DUP3 AND SWAP1 POP SWAP2 SWAP1 POP JUMP JUMPDEST PUSH1 0x0 PUSH2 0x5A6 DUP3 PUSH2 0x58E JUMP JUMPDEST SWAP2 POP PUSH1 0x0 DUP3 EQ ISZERO PUSH2 0x5BA JUMPI PUSH2 0x5B9 PUSH2 0x620 JUMP JUMPDEST JUMPDEST PUSH1 0x1 DUP3 SUB SWAP1 POP SWAP2 SWAP1 POP JUMP JUMPDEST PUSH1 0x0 PUSH2 0x5D0 DUP3 PUSH2 0x58E JUMP JUMPDEST SWAP2 POP PUSH1 0xFF DUP3 EQ ISZERO PUSH2 0x5E4 JUMPI PUSH2 0x5E3 PUSH2 0x620 JUMP JUMPDEST JUMPDEST PUSH1 0x1 DUP3 ADD SWAP1 POP SWAP2 SWAP1 POP JUMP JUMPDEST PUSH1 0x0 PUSH2 0x5FA DUP3 PUSH2 0x58E JUMP JUMPDEST SWAP2 POP PUSH2 0x605 DUP4 PUSH2 0x58E JUMP JUMPDEST SWAP3 POP DUP3 PUSH2 0x615 JUMPI PUSH2 0x614 PUSH2 0x64F JUMP JUMPDEST JUMPDEST DUP3 DUP3 MOD SWAP1 POP SWAP3 SWAP2 POP POP JUMP JUMPDEST PUSH32 0x4E487B7100000000000000000000000000000000000000000000000000000000 PUSH1 0x0 MSTORE PUSH1 0x11 PUSH1 0x4 MSTORE PUSH1 0x24 PUSH1 0x0 REVERT JUMPDEST PUSH32 0x4E487B7100000000000000000000000000000000000000000000000000000000 PUSH1 0x0 MSTORE PUSH1 0x12 PUSH1 0x4 MSTORE PUSH1 0x24 PUSH1 0x0 REVERT INVALID LOG2 PUSH5 0x6970667358 0x22 SLT KECCAK256 TIMESTAMP SWAP8 PUSH24 0x1DE62640B3B79685CF1E59600A3B4E29091F20196CBFC43E 0xDD 0xE1 0xE REVERT DUP1 PUSH5 0x736F6C6343 STOP ADDMOD SMOD STOP CALLER "
		},
		"gasEstimates": {
			"creation": {
				"codeDepositCost": "343200",
				"executionCost": "97598",
				"totalCost": "440798"
			},
			"external": {
				"example_1()": "infinite",
				"example_2()": "infinite",
				"example_3()": "19901",
				"example_4()": "30878",
				"example_5()": "4566"
			}
		},
		"methodIdentifiers": {
			"example_1()": "2c7ad161",
			"example_2()": "b4cf9978",
			"example_3()": "eca2a027",
			"example_4()": "4ab3248b",
			"example_5()": "ce406164"
		}
	},
	"abi": [
		{
			"inputs": [],
			"name": "example_1",
			"outputs": [],
			"stateMutability": "nonpayable",
			"type": "function"
		},
		{
			"inputs": [],
			"name": "example_2",
			"outputs": [],
			"stateMutability": "nonpayable",
			"type": "function"
		},
		{
			"inputs": [],
			"name": "example_3",
			"outputs": [],
			"stateMutability": "view",
			"type": "function"
		},
		{
			"inputs": [],
			"name": "example_4",
			"outputs": [],
			"stateMutability": "view",
			"type": "function"
		},
		{
			"inputs": [],
			"name": "example_5",
			"outputs": [],
			"stateMutability": "view",
			"type": "function"
		}
	]
}